{
  "contractName": "DocumentSigner",
  "abi": [
    {
      "inputs": [
        {
          "internalType": "string",
          "name": "_docuId",
          "type": "string"
        }
      ],
      "name": "signDocumentClient",
      "outputs": [],
      "stateMutability": "nonpayable",
      "type": "function"
    },
    {
      "inputs": [
        {
          "internalType": "string",
          "name": "_docuId",
          "type": "string"
        }
      ],
      "name": "rejectDocument",
      "outputs": [],
      "stateMutability": "nonpayable",
      "type": "function"
    },
    {
      "inputs": [
        {
          "internalType": "string",
          "name": "_docuId",
          "type": "string"
        }
      ],
      "name": "rejectDocumentClient",
      "outputs": [],
      "stateMutability": "nonpayable",
      "type": "function"
    },
    {
      "inputs": [
        {
          "internalType": "string",
          "name": "_docuId",
          "type": "string"
        }
      ],
      "name": "approveDocument",
      "outputs": [],
      "stateMutability": "nonpayable",
      "type": "function"
    },
    {
      "inputs": [
        {
          "internalType": "string",
          "name": "_docuId",
          "type": "string"
        }
      ],
      "name": "createDocument",
      "outputs": [],
      "stateMutability": "nonpayable",
      "type": "function"
    },
    {
      "inputs": [
        {
          "internalType": "string",
          "name": "_claimId",
          "type": "string"
        }
      ],
      "name": "createClaim",
      "outputs": [],
      "stateMutability": "nonpayable",
      "type": "function"
    },
    {
      "inputs": [
        {
          "internalType": "string",
          "name": "_claimId",
          "type": "string"
        }
      ],
      "name": "rejectClaim",
      "outputs": [],
      "stateMutability": "nonpayable",
      "type": "function"
    },
    {
      "inputs": [
        {
          "internalType": "string",
          "name": "_claimId",
          "type": "string"
        }
      ],
      "name": "approveClaim",
      "outputs": [],
      "stateMutability": "nonpayable",
      "type": "function"
    },
    {
      "inputs": [
        {
          "internalType": "string",
          "name": "_docuId",
          "type": "string"
        }
      ],
      "name": "getSignatoriesDocument",
      "outputs": [
        {
          "internalType": "address[3]",
          "name": "",
          "type": "address[3]"
        }
      ],
      "stateMutability": "view",
      "type": "function",
      "constant": true
    },
    {
      "inputs": [
        {
          "internalType": "string",
          "name": "_docuId",
          "type": "string"
        }
      ],
      "name": "getStatusDocument",
      "outputs": [
        {
          "internalType": "string",
          "name": "",
          "type": "string"
        }
      ],
      "stateMutability": "view",
      "type": "function",
      "constant": true
    },
    {
      "inputs": [
        {
          "internalType": "string",
          "name": "_claimId",
          "type": "string"
        }
      ],
      "name": "getSignatoriesClaim",
      "outputs": [
        {
          "internalType": "address[2]",
          "name": "",
          "type": "address[2]"
        }
      ],
      "stateMutability": "view",
      "type": "function",
      "constant": true
    },
    {
      "inputs": [
        {
          "internalType": "string",
          "name": "_claimId",
          "type": "string"
        }
      ],
      "name": "getStatusClaim",
      "outputs": [
        {
          "internalType": "string",
          "name": "",
          "type": "string"
        }
      ],
      "stateMutability": "view",
      "type": "function",
      "constant": true
    }
  ],
  "bytecode": "0x60806040526040518060200160405280730a214dd3490567a36a09f9dd2970ebe723efc55373ffffffffffffffffffffffffffffffffffffffff1673ffffffffffffffffffffffffffffffffffffffff168152506000906001620000659291906200007a565b503480156200007357600080fd5b5062000128565b828054828255906000526020600020908101928215620000f6579160200282015b82811115620000f55782518260006101000a81548173ffffffffffffffffffffffffffffffffffffffff021916908373ffffffffffffffffffffffffffffffffffffffff160217905550916020019190600101906200009b565b5b50905062000105919062000109565b5090565b5b80821115620001245760008160009055506001016200010a565b5090565b61186a80620001386000396000f3fe608060405234801561001057600080fd5b50600436106100b45760003560e01c806367f3399e1161007157806367f3399e1461019d57806384c08ed3146101b957806388d70e1e146101d5578063cd9524f1146101f1578063e100bc7d1461020d578063ff895a6b14610229576100b4565b806302e85efe146100b95780631af7c89d146100d5578063484c7dfe1461010557806349af9e1c146101215780634b2fd0841461015157806353739b1d1461016d575b600080fd5b6100d360048036038101906100ce9190611419565b610259565b005b6100ef60048036038101906100ea9190611419565b6103fa565b6040516100fc919061153f565b60405180910390f35b61011f600480360381019061011a9190611419565b6104f8565b005b61013b60048036038101906101369190611419565b610698565b60405161014891906115de565b60405180910390f35b61016b60048036038101906101669190611419565b610809565b005b61018760048036038101906101829190611419565b6109a9565b6040516101949190611681565b60405180910390f35b6101b760048036038101906101b29190611419565b610b45565b005b6101d360048036038101906101ce9190611419565b610bf1565b005b6101ef60048036038101906101ea9190611419565b610d2e565b005b61020b60048036038101906102069190611419565b610ece565b005b61022760048036038101906102229190611419565b610f7b565b005b610243600480360381019061023e9190611419565b61111a565b6040516102509190611681565b60405180910390f35b60405180608001604052803373ffffffffffffffffffffffffffffffffffffffff168152602001600073ffffffffffffffffffffffffffffffffffffffff168152602001600073ffffffffffffffffffffffffffffffffffffffff168152602001600060048111156102ce576102cd6116a3565b5b8152506001826040516102e1919061170e565b908152602001604051809103902060008201518160000160006101000a81548173ffffffffffffffffffffffffffffffffffffffff021916908373ffffffffffffffffffffffffffffffffffffffff16021790555060208201518160010160006101000a81548173ffffffffffffffffffffffffffffffffffffffff021916908373ffffffffffffffffffffffffffffffffffffffff16021790555060408201518160020160006101000a81548173ffffffffffffffffffffffffffffffffffffffff021916908373ffffffffffffffffffffffffffffffffffffffff16021790555060608201518160020160146101000a81548160ff021916908360048111156103ef576103ee6116a3565b5b021790555090505050565b61040261127b565b604051806040016040528060028460405161041d919061170e565b908152602001604051809103902060000160009054906101000a900473ffffffffffffffffffffffffffffffffffffffff1673ffffffffffffffffffffffffffffffffffffffff1673ffffffffffffffffffffffffffffffffffffffff168152602001600284604051610490919061170e565b908152602001604051809103902060010160009054906101000a900473ffffffffffffffffffffffffffffffffffffffff1673ffffffffffffffffffffffffffffffffffffffff1673ffffffffffffffffffffffffffffffffffffffff168152509050919050565b6000805b6000805490508167ffffffffffffffff1610156105a95760008167ffffffffffffffff168154811061053157610530611725565b5b9060005260206000200160009054906101000a900473ffffffffffffffffffffffffffffffffffffffff1673ffffffffffffffffffffffffffffffffffffffff163373ffffffffffffffffffffffffffffffffffffffff16141561059857600191506105a9565b806105a290611797565b90506104fc565b50806105ea576040517f08c379a00000000000000000000000000000000000000000000000000000000081526004016105e190611814565b60405180910390fd5b336001836040516105fb919061170e565b908152602001604051809103902060020160006101000a81548173ffffffffffffffffffffffffffffffffffffffff021916908373ffffffffffffffffffffffffffffffffffffffff160217905550600460018360405161065c919061170e565b908152602001604051809103902060020160146101000a81548160ff0219169083600481111561068f5761068e6116a3565b5b02179055505050565b6106a061129d565b60405180606001604052806001846040516106bb919061170e565b908152602001604051809103902060000160009054906101000a900473ffffffffffffffffffffffffffffffffffffffff1673ffffffffffffffffffffffffffffffffffffffff1673ffffffffffffffffffffffffffffffffffffffff16815260200160018460405161072e919061170e565b908152602001604051809103902060010160009054906101000a900473ffffffffffffffffffffffffffffffffffffffff1673ffffffffffffffffffffffffffffffffffffffff1673ffffffffffffffffffffffffffffffffffffffff1681526020016001846040516107a1919061170e565b908152602001604051809103902060020160009054906101000a900473ffffffffffffffffffffffffffffffffffffffff1673ffffffffffffffffffffffffffffffffffffffff1673ffffffffffffffffffffffffffffffffffffffff168152509050919050565b6000805b6000805490508167ffffffffffffffff1610156108ba5760008167ffffffffffffffff168154811061084257610841611725565b5b9060005260206000200160009054906101000a900473ffffffffffffffffffffffffffffffffffffffff1673ffffffffffffffffffffffffffffffffffffffff163373ffffffffffffffffffffffffffffffffffffffff1614156108a957600191506108ba565b806108b390611797565b905061080d565b50806108fb576040517f08c379a00000000000000000000000000000000000000000000000000000000081526004016108f290611814565b60405180910390fd5b3360018360405161090c919061170e565b908152602001604051809103902060020160006101000a81548173ffffffffffffffffffffffffffffffffffffffff021916908373ffffffffffffffffffffffffffffffffffffffff160217905550600360018360405161096d919061170e565b908152602001604051809103902060020160146101000a81548160ff021916908360048111156109a05761099f6116a3565b5b02179055505050565b606060006040518060a001604052806040518060400160405280600681526020017f51756f746564000000000000000000000000000000000000000000000000000081525081526020016040518060400160405280600781526020017f4170706c6965640000000000000000000000000000000000000000000000000081525081526020016040518060400160405280600b81526020017f496e2070726f677265737300000000000000000000000000000000000000000081525081526020016040518060400160405280600881526020017f417070726f76656400000000000000000000000000000000000000000000000081525081526020016040518060400160405280600881526020017f52656a656374656400000000000000000000000000000000000000000000000081525081525090506000600184604051610af1919061170e565b908152602001604051809103902060020160149054906101000a900460ff166004811115610b2257610b216116a3565b5b9050818160058110610b3757610b36611725565b5b602002015192505050919050565b33600182604051610b56919061170e565b908152602001604051809103902060010160006101000a81548173ffffffffffffffffffffffffffffffffffffffff021916908373ffffffffffffffffffffffffffffffffffffffff16021790555060018082604051610bb6919061170e565b908152602001604051809103902060020160146101000a81548160ff02191690836004811115610be957610be86116a3565b5b021790555050565b60405180606001604052803373ffffffffffffffffffffffffffffffffffffffff168152602001600073ffffffffffffffffffffffffffffffffffffffff16815260200160006003811115610c4957610c486116a3565b5b815250600282604051610c5c919061170e565b908152602001604051809103902060008201518160000160006101000a81548173ffffffffffffffffffffffffffffffffffffffff021916908373ffffffffffffffffffffffffffffffffffffffff16021790555060208201518160010160006101000a81548173ffffffffffffffffffffffffffffffffffffffff021916908373ffffffffffffffffffffffffffffffffffffffff16021790555060408201518160010160146101000a81548160ff02191690836003811115610d2357610d226116a3565b5b021790555090505050565b6000805b6000805490508167ffffffffffffffff161015610ddf5760008167ffffffffffffffff1681548110610d6757610d66611725565b5b9060005260206000200160009054906101000a900473ffffffffffffffffffffffffffffffffffffffff1673ffffffffffffffffffffffffffffffffffffffff163373ffffffffffffffffffffffffffffffffffffffff161415610dce5760019150610ddf565b80610dd890611797565b9050610d32565b5080610e20576040517f08c379a0000000000000000000000000000000000000000000000000000000008152600401610e1790611814565b60405180910390fd5b33600283604051610e31919061170e565b908152602001604051809103902060010160006101000a81548173ffffffffffffffffffffffffffffffffffffffff021916908373ffffffffffffffffffffffffffffffffffffffff1602179055506003600283604051610e92919061170e565b908152602001604051809103902060010160146101000a81548160ff02191690836003811115610ec557610ec46116a3565b5b02179055505050565b33600182604051610edf919061170e565b908152602001604051809103902060010160006101000a81548173ffffffffffffffffffffffffffffffffffffffff021916908373ffffffffffffffffffffffffffffffffffffffff1602179055506004600182604051610f40919061170e565b908152602001604051809103902060020160146101000a81548160ff02191690836004811115610f7357610f726116a3565b5b021790555050565b6000805b6000805490508167ffffffffffffffff16101561102c5760008167ffffffffffffffff1681548110610fb457610fb3611725565b5b9060005260206000200160009054906101000a900473ffffffffffffffffffffffffffffffffffffffff1673ffffffffffffffffffffffffffffffffffffffff163373ffffffffffffffffffffffffffffffffffffffff16141561101b576001915061102c565b8061102590611797565b9050610f7f565b508061106d576040517f08c379a000000000000000000000000000000000000000000000000000000000815260040161106490611814565b60405180910390fd5b3360028360405161107e919061170e565b908152602001604051809103902060010160006101000a81548173ffffffffffffffffffffffffffffffffffffffff021916908373ffffffffffffffffffffffffffffffffffffffff160217905550600280836040516110de919061170e565b908152602001604051809103902060010160146101000a81548160ff02191690836003811115611111576111106116a3565b5b02179055505050565b6060600060405180608001604052806040518060400160405280600781526020017f4170706c6965640000000000000000000000000000000000000000000000000081525081526020016040518060400160405280600b81526020017f496e2070726f677265737300000000000000000000000000000000000000000081525081526020016040518060400160405280600881526020017f417070726f76656400000000000000000000000000000000000000000000000081525081526020016040518060400160405280600881526020017f52656a656374656400000000000000000000000000000000000000000000000081525081525090506000600284604051611227919061170e565b908152602001604051809103902060010160149054906101000a900460ff166003811115611258576112576116a3565b5b905081816004811061126d5761126c611725565b5b602002015192505050919050565b6040518060400160405280600290602082028036833780820191505090505090565b6040518060600160405280600390602082028036833780820191505090505090565b6000604051905090565b600080fd5b600080fd5b600080fd5b600080fd5b6000601f19601f8301169050919050565b7f4e487b7100000000000000000000000000000000000000000000000000000000600052604160045260246000fd5b611326826112dd565b810181811067ffffffffffffffff82111715611345576113446112ee565b5b80604052505050565b60006113586112bf565b9050611364828261131d565b919050565b600067ffffffffffffffff821115611384576113836112ee565b5b61138d826112dd565b9050602081019050919050565b82818337600083830152505050565b60006113bc6113b784611369565b61134e565b9050828152602081018484840111156113d8576113d76112d8565b5b6113e384828561139a565b509392505050565b600082601f830112611400576113ff6112d3565b5b81356114108482602086016113a9565b91505092915050565b60006020828403121561142f5761142e6112c9565b5b600082013567ffffffffffffffff81111561144d5761144c6112ce565b5b611459848285016113eb565b91505092915050565b600060029050919050565b600081905092915050565b6000819050919050565b600073ffffffffffffffffffffffffffffffffffffffff82169050919050565b60006114ad82611482565b9050919050565b6114bd816114a2565b82525050565b60006114cf83836114b4565b60208301905092915050565b6000602082019050919050565b6114f181611462565b6114fb818461146d565b925061150682611478565b8060005b8381101561153757815161151e87826114c3565b9650611529836114db565b92505060018101905061150a565b505050505050565b600060408201905061155460008301846114e8565b92915050565b600060039050919050565b600081905092915050565b6000819050919050565b6000602082019050919050565b6115908161155a565b61159a8184611565565b92506115a582611570565b8060005b838110156115d65781516115bd87826114c3565b96506115c88361157a565b9250506001810190506115a9565b505050505050565b60006060820190506115f36000830184611587565b92915050565b600081519050919050565b600082825260208201905092915050565b60005b83811015611633578082015181840152602081019050611618565b83811115611642576000848401525b50505050565b6000611653826115f9565b61165d8185611604565b935061166d818560208601611615565b611676816112dd565b840191505092915050565b6000602082019050818103600083015261169b8184611648565b905092915050565b7f4e487b7100000000000000000000000000000000000000000000000000000000600052602160045260246000fd5b600081905092915050565b60006116e8826115f9565b6116f281856116d2565b9350611702818560208601611615565b80840191505092915050565b600061171a82846116dd565b915081905092915050565b7f4e487b7100000000000000000000000000000000000000000000000000000000600052603260045260246000fd5b7f4e487b7100000000000000000000000000000000000000000000000000000000600052601160045260246000fd5b600067ffffffffffffffff82169050919050565b60006117a282611783565b915067ffffffffffffffff8214156117bd576117bc611754565b5b600182019050919050565b7f55736572206973206e6f7420616e2061646d696e210000000000000000000000600082015250565b60006117fe601583611604565b9150611809826117c8565b602082019050919050565b6000602082019050818103600083015261182d816117f1565b905091905056fea26469706673582212205f4214ba00ab3e89d3347d4f946869133b96a497adc9a8ad72049e65b1ed57cc64736f6c634300080b0033",
  "immutableReferences": {},
  "source": "// SPDX-License-Identifier: GPL-3.0\r\n\r\npragma solidity ^0.8.7;\r\n\r\ncontract DocumentSigner {\r\n    address[] private admins = [0x0A214Dd3490567A36a09F9DD2970ebe723eFC553];\r\n\r\n    mapping(string => Document) private documents; //convert to string mapping with oid\r\n    mapping(string => Claim) private claims;\r\n\r\n\r\n    enum Status {\r\n        QUOTED,\r\n        APPLIED,\r\n        PROGRESS,\r\n        APPROVED,\r\n        REJECTED\r\n    } //add other statuses {QUOTED, APPLIED}\r\n\r\n    enum ClaimStatus {\r\n        APPLIED,\r\n        PROGRESS,\r\n        APPROVED,\r\n        REJECTED\r\n    }\r\n\r\n    struct Document {\r\n        address agent;\r\n        address client;\r\n        address broker;\r\n        Status status;\r\n    }\r\n\r\n    struct Claim {\r\n        address client;\r\n        address broker;\r\n        ClaimStatus cStatus;\r\n    }\r\n\r\n    function signDocumentClient(string memory _docuId) public {\r\n        documents[_docuId].client = msg.sender;\r\n        documents[_docuId].status = Status.APPLIED;\r\n    }\r\n\r\n    modifier onlyAdmins() {\r\n        bool isAdmin = false;\r\n        for (uint64 i = 0; i < admins.length; ++i) {\r\n            if (msg.sender == admins[i]) {\r\n                isAdmin = true;\r\n                break;\r\n            }\r\n        }\r\n\r\n        require(isAdmin, \"User is not an admin!\");\r\n        _;\r\n    }\r\n\r\n    function rejectDocument(string memory _docuId) public onlyAdmins {\r\n        documents[_docuId].broker = msg.sender;\r\n        documents[_docuId].status = Status.REJECTED;\r\n    }\r\n\r\n    function rejectDocumentClient(string memory _docuId) public {\r\n        documents[_docuId].client = msg.sender;\r\n        documents[_docuId].status = Status.REJECTED;\r\n    }\r\n\r\n    function approveDocument(string memory _docuId) public onlyAdmins {\r\n        documents[_docuId].broker = msg.sender;\r\n        documents[_docuId].status = Status.APPROVED;\r\n    }\r\n\r\n    function createDocument(string memory _docuId) public {\r\n        documents[_docuId] = Document(\r\n            msg.sender,\r\n            address(0),\r\n            address(0),\r\n            Status.QUOTED\r\n        );\r\n    }\r\n\r\n    function createClaim(string memory _claimId) public {\r\n        claims[_claimId] = Claim(msg.sender, address(0), ClaimStatus.APPLIED);\r\n    }\r\n\r\n    function rejectClaim(string memory _claimId) public onlyAdmins {\r\n        claims[_claimId].broker = msg.sender;\r\n        claims[_claimId].cStatus = ClaimStatus.REJECTED;\r\n    }\r\n\r\n    function approveClaim(string memory _claimId) public onlyAdmins {\r\n        claims[_claimId].broker = msg.sender;\r\n        claims[_claimId].cStatus = ClaimStatus.APPROVED;\r\n    }\r\n\r\n    function getSignatoriesDocument(string memory _docuId)\r\n        public\r\n        view\r\n        returns (address[3] memory)\r\n    {\r\n        return [\r\n            documents[_docuId].agent,\r\n            documents[_docuId].client,\r\n            documents[_docuId].broker\r\n        ];\r\n    }\r\n\r\n    function getStatusDocument(string memory _docuId)\r\n        public\r\n        view\r\n        returns (string memory)\r\n    {\r\n        string[5] memory statuses = [\r\n            \"Quoted\",\r\n            \"Applied\",\r\n            \"In progress\",\r\n            \"Approved\",\r\n            \"Rejected\"\r\n        ];\r\n        uint256 statusIdx = uint256(documents[_docuId].status);\r\n        return statuses[statusIdx];\r\n    }\r\n\r\n    function getSignatoriesClaim(string memory _claimId)\r\n        public\r\n        view\r\n        returns (address[2] memory)\r\n    {\r\n        return [claims[_claimId].client, claims[_claimId].broker];\r\n    }\r\n\r\n    function getStatusClaim(string memory _claimId)\r\n        public\r\n        view\r\n        returns (string memory)\r\n    {\r\n        string[4] memory statuses = [\r\n            \"Applied\",\r\n            \"In progress\",\r\n            \"Approved\",\r\n            \"Rejected\"\r\n        ];\r\n        uint256 statusIdx = uint256(claims[_claimId].cStatus);\r\n        return statuses[statusIdx];\r\n    }\r\n}\r\n",
  "sourcePath": "C:\\Users\\vigne\\OneDrive\\Documents\\GitHub\\homana-frontend\\src\\contracts\\DocumentSigner.sol",
  "compiler": {
    "name": "solc",
    "version": "0.8.11+commit.d7f03943.Emscripten.clang"
  },
  "schemaVersion": "3.4.4",
  "updatedAt": "2022-07-15T12:58:02.190Z",
  "networkType": "ethereum",
  "devdoc": {
    "kind": "dev",
    "methods": {},
    "version": 1
  },
  "userdoc": {
    "kind": "user",
    "methods": {},
    "version": 1
  }
}