{
  "contractName": "DocumentSigner",
  "abi": [
    {
      "inputs": [
        {
          "internalType": "uint256",
          "name": "_docuId",
          "type": "uint256"
        }
      ],
      "name": "signDocumentClient",
      "outputs": [],
      "stateMutability": "nonpayable",
      "type": "function"
    },
    {
      "inputs": [
        {
          "internalType": "uint256",
          "name": "_docuId",
          "type": "uint256"
        }
      ],
      "name": "rejectDocument",
      "outputs": [],
      "stateMutability": "nonpayable",
      "type": "function"
    },
    {
      "inputs": [
        {
          "internalType": "uint256",
          "name": "_docuId",
          "type": "uint256"
        }
      ],
      "name": "approveDocument",
      "outputs": [],
      "stateMutability": "nonpayable",
      "type": "function"
    },
    {
      "inputs": [],
      "name": "createDocument",
      "outputs": [],
      "stateMutability": "nonpayable",
      "type": "function"
    },
    {
      "inputs": [],
      "name": "createClaim",
      "outputs": [],
      "stateMutability": "nonpayable",
      "type": "function"
    },
    {
      "inputs": [
        {
          "internalType": "uint256",
          "name": "_claimId",
          "type": "uint256"
        }
      ],
      "name": "rejectClaim",
      "outputs": [],
      "stateMutability": "nonpayable",
      "type": "function"
    },
    {
      "inputs": [
        {
          "internalType": "uint256",
          "name": "_claimId",
          "type": "uint256"
        }
      ],
      "name": "approveClaim",
      "outputs": [],
      "stateMutability": "nonpayable",
      "type": "function"
    },
    {
      "inputs": [
        {
          "internalType": "uint256",
          "name": "_docuId",
          "type": "uint256"
        }
      ],
      "name": "getSignatoriesDocument",
      "outputs": [
        {
          "internalType": "address[3]",
          "name": "",
          "type": "address[3]"
        }
      ],
      "stateMutability": "view",
      "type": "function",
      "constant": true
    },
    {
      "inputs": [
        {
          "internalType": "uint256",
          "name": "_docuId",
          "type": "uint256"
        }
      ],
      "name": "getStatusDocument",
      "outputs": [
        {
          "internalType": "string",
          "name": "",
          "type": "string"
        }
      ],
      "stateMutability": "view",
      "type": "function",
      "constant": true
    },
    {
      "inputs": [
        {
          "internalType": "uint256",
          "name": "_claimId",
          "type": "uint256"
        }
      ],
      "name": "getSignatoriesClaim",
      "outputs": [
        {
          "internalType": "address[2]",
          "name": "",
          "type": "address[2]"
        }
      ],
      "stateMutability": "view",
      "type": "function",
      "constant": true
    },
    {
      "inputs": [
        {
          "internalType": "uint256",
          "name": "_claimId",
          "type": "uint256"
        }
      ],
      "name": "getStatusClaim",
      "outputs": [
        {
          "internalType": "string",
          "name": "",
          "type": "string"
        }
      ],
      "stateMutability": "view",
      "type": "function",
      "constant": true
    }
  ],
  "bytecode": "0x6080604052604051806020016040528073a9bd3af1e346b915a5d052070301dcf5b3d3465a73ffffffffffffffffffffffffffffffffffffffff1673ffffffffffffffffffffffffffffffffffffffff1681525060009060016200006592919062000084565b50600060055560006006553480156200007d57600080fd5b5062000132565b82805482825590600052602060002090810192821562000100579160200282015b82811115620000ff5782518260006101000a81548173ffffffffffffffffffffffffffffffffffffffff021916908373ffffffffffffffffffffffffffffffffffffffff16021790555091602001919060010190620000a5565b5b5090506200010f919062000113565b5090565b5b808211156200012e57600081600090555060010162000114565b5090565b6115f580620001426000396000f3fe608060405234801561001057600080fd5b50600436106100a95760003560e01c80637b10becb116100715780637b10becb146101505780638cae8c5a1461016c578063a9b130c81461019c578063b0975a47146101b8578063c0ab28df146101d4578063d3f588df14610204576100a9565b80631e50f501146100ae57806320341101146100de57806325a87c40146100fa57806346e301351461012a5780634888e36f14610146575b600080fd5b6100c860048036038101906100c391906111b9565b61020e565b6040516100d5919061127f565b60405180910390f35b6100f860048036038101906100f391906111b9565b610364565b005b610114600480360381019061010f91906111b9565b6104ee565b604051610121919061137e565b60405180910390f35b610144600480360381019061013f91906111b9565b61063e565b005b61014e6107c7565b005b61016a600480360381019061016591906111b9565b61093d565b005b610186600480360381019061018191906111b9565b610ac7565b604051610193919061127f565b60405180910390f35b6101b660048036038101906101b191906111b9565b610c58565b005b6101d260048036038101906101cd91906111b9565b610cee565b005b6101ee60048036038101906101e991906111b9565b610e78565b6040516101fb919061141d565b60405180910390f35b61020c610f60565b005b6060600060405180608001604052806040518060400160405280600781526020017f4170706c6965640000000000000000000000000000000000000000000000000081525081526020016040518060400160405280600b81526020017f496e2070726f677265737300000000000000000000000000000000000000000081525081526020016040518060400160405280600881526020017f417070726f76656400000000000000000000000000000000000000000000000081525081526020016040518060400160405280600881526020017f52656a6563746564000000000000000000000000000000000000000000000000815250815250905060006002600085815260200190815260200160002060010160149054906101000a900460ff16600381111561034157610340611438565b5b905081816004811061035657610355611467565b5b602002015192505050919050565b6000805b6000805490508167ffffffffffffffff1610156104155760008167ffffffffffffffff168154811061039d5761039c611467565b5b9060005260206000200160009054906101000a900473ffffffffffffffffffffffffffffffffffffffff1673ffffffffffffffffffffffffffffffffffffffff163373ffffffffffffffffffffffffffffffffffffffff1614156104045760019150610415565b8061040e906114d9565b9050610368565b5080610456576040517f08c379a000000000000000000000000000000000000000000000000000000000815260040161044d90611556565b60405180910390fd5b336002600084815260200190815260200160002060010160006101000a81548173ffffffffffffffffffffffffffffffffffffffff021916908373ffffffffffffffffffffffffffffffffffffffff16021790555060036002600084815260200190815260200160002060010160146101000a81548160ff021916908360038111156104e5576104e4611438565b5b02179055505050565b6104f661113a565b60405180606001604052806001600085815260200190815260200160002060000160009054906101000a900473ffffffffffffffffffffffffffffffffffffffff1673ffffffffffffffffffffffffffffffffffffffff1673ffffffffffffffffffffffffffffffffffffffff1681526020016001600085815260200190815260200160002060010160009054906101000a900473ffffffffffffffffffffffffffffffffffffffff1673ffffffffffffffffffffffffffffffffffffffff1673ffffffffffffffffffffffffffffffffffffffff1681526020016001600085815260200190815260200160002060020160009054906101000a900473ffffffffffffffffffffffffffffffffffffffff1673ffffffffffffffffffffffffffffffffffffffff1673ffffffffffffffffffffffffffffffffffffffff168152509050919050565b6000805b6000805490508167ffffffffffffffff1610156106ef5760008167ffffffffffffffff168154811061067757610676611467565b5b9060005260206000200160009054906101000a900473ffffffffffffffffffffffffffffffffffffffff1673ffffffffffffffffffffffffffffffffffffffff163373ffffffffffffffffffffffffffffffffffffffff1614156106de57600191506106ef565b806106e8906114d9565b9050610642565b5080610730576040517f08c379a000000000000000000000000000000000000000000000000000000000815260040161072790611556565b60405180910390fd5b336002600084815260200190815260200160002060010160006101000a81548173ffffffffffffffffffffffffffffffffffffffff021916908373ffffffffffffffffffffffffffffffffffffffff160217905550600280600084815260200190815260200160002060010160146101000a81548160ff021916908360038111156107be576107bd611438565b5b02179055505050565b60405180606001604052803373ffffffffffffffffffffffffffffffffffffffff168152602001600073ffffffffffffffffffffffffffffffffffffffff1681526020016000600381111561081f5761081e611438565b5b81525060026000600654815260200190815260200160002060008201518160000160006101000a81548173ffffffffffffffffffffffffffffffffffffffff021916908373ffffffffffffffffffffffffffffffffffffffff16021790555060208201518160010160006101000a81548173ffffffffffffffffffffffffffffffffffffffff021916908373ffffffffffffffffffffffffffffffffffffffff16021790555060408201518160010160146101000a81548160ff021916908360038111156108f0576108ef611438565b5b0217905550905050600460065490806001815401808255809150506001900390600052602060002001600090919091909150556006600081548092919061093690611576565b9190505550565b6000805b6000805490508167ffffffffffffffff1610156109ee5760008167ffffffffffffffff168154811061097657610975611467565b5b9060005260206000200160009054906101000a900473ffffffffffffffffffffffffffffffffffffffff1673ffffffffffffffffffffffffffffffffffffffff163373ffffffffffffffffffffffffffffffffffffffff1614156109dd57600191506109ee565b806109e7906114d9565b9050610941565b5080610a2f576040517f08c379a0000000000000000000000000000000000000000000000000000000008152600401610a2690611556565b60405180910390fd5b336001600084815260200190815260200160002060020160006101000a81548173ffffffffffffffffffffffffffffffffffffffff021916908373ffffffffffffffffffffffffffffffffffffffff16021790555060046001600084815260200190815260200160002060020160146101000a81548160ff02191690836004811115610abe57610abd611438565b5b02179055505050565b606060006040518060a001604052806040518060400160405280600681526020017f51756f746564000000000000000000000000000000000000000000000000000081525081526020016040518060400160405280600781526020017f4170706c6965640000000000000000000000000000000000000000000000000081525081526020016040518060400160405280600b81526020017f496e2070726f677265737300000000000000000000000000000000000000000081525081526020016040518060400160405280600881526020017f417070726f76656400000000000000000000000000000000000000000000000081525081526020016040518060400160405280600881526020017f52656a6563746564000000000000000000000000000000000000000000000000815250815250905060006001600085815260200190815260200160002060020160149054906101000a900460ff166004811115610c3557610c34611438565b5b9050818160058110610c4a57610c49611467565b5b602002015192505050919050565b336001600083815260200190815260200160002060010160006101000a81548173ffffffffffffffffffffffffffffffffffffffff021916908373ffffffffffffffffffffffffffffffffffffffff160217905550600180600083815260200190815260200160002060020160146101000a81548160ff02191690836004811115610ce657610ce5611438565b5b021790555050565b6000805b6000805490508167ffffffffffffffff161015610d9f5760008167ffffffffffffffff1681548110610d2757610d26611467565b5b9060005260206000200160009054906101000a900473ffffffffffffffffffffffffffffffffffffffff1673ffffffffffffffffffffffffffffffffffffffff163373ffffffffffffffffffffffffffffffffffffffff161415610d8e5760019150610d9f565b80610d98906114d9565b9050610cf2565b5080610de0576040517f08c379a0000000000000000000000000000000000000000000000000000000008152600401610dd790611556565b60405180910390fd5b336001600084815260200190815260200160002060020160006101000a81548173ffffffffffffffffffffffffffffffffffffffff021916908373ffffffffffffffffffffffffffffffffffffffff16021790555060036001600084815260200190815260200160002060020160146101000a81548160ff02191690836004811115610e6f57610e6e611438565b5b02179055505050565b610e8061115c565b60405180604001604052806002600085815260200190815260200160002060000160009054906101000a900473ffffffffffffffffffffffffffffffffffffffff1673ffffffffffffffffffffffffffffffffffffffff1673ffffffffffffffffffffffffffffffffffffffff1681526020016002600085815260200190815260200160002060010160009054906101000a900473ffffffffffffffffffffffffffffffffffffffff1673ffffffffffffffffffffffffffffffffffffffff1673ffffffffffffffffffffffffffffffffffffffff168152509050919050565b60405180608001604052803373ffffffffffffffffffffffffffffffffffffffff168152602001600073ffffffffffffffffffffffffffffffffffffffff168152602001600073ffffffffffffffffffffffffffffffffffffffff16815260200160006004811115610fd557610fd4611438565b5b81525060016000600554815260200190815260200160002060008201518160000160006101000a81548173ffffffffffffffffffffffffffffffffffffffff021916908373ffffffffffffffffffffffffffffffffffffffff16021790555060208201518160010160006101000a81548173ffffffffffffffffffffffffffffffffffffffff021916908373ffffffffffffffffffffffffffffffffffffffff16021790555060408201518160020160006101000a81548173ffffffffffffffffffffffffffffffffffffffff021916908373ffffffffffffffffffffffffffffffffffffffff16021790555060608201518160020160146101000a81548160ff021916908360048111156110ed576110ec611438565b5b0217905550905050600360055490806001815401808255809150506001900390600052602060002001600090919091909150556005600081548092919061113390611576565b9190505550565b6040518060600160405280600390602082028036833780820191505090505090565b6040518060400160405280600290602082028036833780820191505090505090565b600080fd5b6000819050919050565b61119681611183565b81146111a157600080fd5b50565b6000813590506111b38161118d565b92915050565b6000602082840312156111cf576111ce61117e565b5b60006111dd848285016111a4565b91505092915050565b600081519050919050565b600082825260208201905092915050565b60005b83811015611220578082015181840152602081019050611205565b8381111561122f576000848401525b50505050565b6000601f19601f8301169050919050565b6000611251826111e6565b61125b81856111f1565b935061126b818560208601611202565b61127481611235565b840191505092915050565b600060208201905081810360008301526112998184611246565b905092915050565b600060039050919050565b600081905092915050565b6000819050919050565b600073ffffffffffffffffffffffffffffffffffffffff82169050919050565b60006112ec826112c1565b9050919050565b6112fc816112e1565b82525050565b600061130e83836112f3565b60208301905092915050565b6000602082019050919050565b611330816112a1565b61133a81846112ac565b9250611345826112b7565b8060005b8381101561137657815161135d8782611302565b96506113688361131a565b925050600181019050611349565b505050505050565b60006060820190506113936000830184611327565b92915050565b600060029050919050565b600081905092915050565b6000819050919050565b6000602082019050919050565b6113cf81611399565b6113d981846113a4565b92506113e4826113af565b8060005b838110156114155781516113fc8782611302565b9650611407836113b9565b9250506001810190506113e8565b505050505050565b600060408201905061143260008301846113c6565b92915050565b7f4e487b7100000000000000000000000000000000000000000000000000000000600052602160045260246000fd5b7f4e487b7100000000000000000000000000000000000000000000000000000000600052603260045260246000fd5b7f4e487b7100000000000000000000000000000000000000000000000000000000600052601160045260246000fd5b600067ffffffffffffffff82169050919050565b60006114e4826114c5565b915067ffffffffffffffff8214156114ff576114fe611496565b5b600182019050919050565b7f55736572206973206e6f7420616e2061646d696e210000000000000000000000600082015250565b60006115406015836111f1565b915061154b8261150a565b602082019050919050565b6000602082019050818103600083015261156f81611533565b9050919050565b600061158182611183565b91507fffffffffffffffffffffffffffffffffffffffffffffffffffffffffffffffff8214156115b4576115b3611496565b5b60018201905091905056fea2646970667358221220ffa7c9c32abc6a96ca53c251a1996f7b1e1f8a0163cb0ef1cdf7cd4edc6332e564736f6c634300080b0033",
  "immutableReferences": {},
  "source": "// SPDX-License-Identifier: GPL-3.0\r\n\r\npragma solidity ^0.8.7;\r\n\r\ncontract DocumentSigner {\r\n    address[] private admins = [0xA9bd3AF1e346b915a5D052070301Dcf5b3D3465A];\r\n\r\n    mapping(uint256 => Document) private documents; //convert to string mapping with oid\r\n    mapping(uint256 => Claim) private claims;\r\n\r\n    uint256[] private documentId; //convert to string mapping with oid\r\n    uint256[] private cId; //convert to string mapping with oid\r\n    uint256 private docuId = 0; //remove\r\n    uint256 private claimId = 0; //remove\r\n\r\n    enum Status {\r\n        QUOTED,\r\n        APPLIED,\r\n        PROGRESS,\r\n        APPROVED,\r\n        REJECTED\r\n    } //add other statuses {QUOTED, APPLIED}\r\n\r\n    enum ClaimStatus {\r\n        APPLIED,\r\n        PROGRESS,\r\n        APPROVED,\r\n        REJECTED\r\n    }\r\n\r\n    struct Document {\r\n        address agent;\r\n        address client;\r\n        address broker;\r\n        Status status;\r\n    }\r\n\r\n    struct Claim {\r\n        address client;\r\n        address broker;\r\n        ClaimStatus cStatus;\r\n    }\r\n\r\n    function signDocumentClient(uint256 _docuId) public {\r\n        documents[_docuId].client = msg.sender;\r\n        documents[_docuId].status = Status.APPLIED;\r\n    }\r\n\r\n    modifier onlyAdmins() {\r\n        bool isAdmin = false;\r\n        for (uint64 i = 0; i < admins.length; ++i) {\r\n            if (msg.sender == admins[i]) {\r\n                isAdmin = true;\r\n                break;\r\n            }\r\n        }\r\n\r\n        require(isAdmin, \"User is not an admin!\");\r\n        _;\r\n    }\r\n\r\n    function rejectDocument(uint256 _docuId) public onlyAdmins {\r\n        documents[_docuId].broker = msg.sender;\r\n        documents[_docuId].status = Status.REJECTED;\r\n    }\r\n\r\n    function approveDocument(uint256 _docuId) public onlyAdmins {\r\n        documents[_docuId].broker = msg.sender;\r\n        documents[_docuId].status = Status.APPROVED;\r\n    }\r\n\r\n    function createDocument() public {\r\n        documents[docuId] = Document(\r\n            msg.sender,\r\n            address(0),\r\n            address(0),\r\n            Status.QUOTED\r\n        );\r\n        documentId.push(docuId);\r\n        docuId++;\r\n    }\r\n\r\n    function createClaim() public {\r\n        claims[claimId] = Claim(msg.sender, address(0), ClaimStatus.APPLIED);\r\n        cId.push(claimId);\r\n        claimId++;\r\n    }\r\n\r\n    function rejectClaim(uint256 _claimId) public onlyAdmins {\r\n        claims[_claimId].broker = msg.sender;\r\n        claims[_claimId].cStatus = ClaimStatus.REJECTED;\r\n    }\r\n\r\n    function approveClaim(uint256 _claimId) public onlyAdmins {\r\n        claims[_claimId].broker = msg.sender;\r\n        claims[_claimId].cStatus = ClaimStatus.APPROVED;\r\n    }\r\n\r\n    function getSignatoriesDocument(uint256 _docuId)\r\n        public\r\n        view\r\n        returns (address[3] memory)\r\n    {\r\n        return [\r\n            documents[_docuId].agent,\r\n            documents[_docuId].client,\r\n            documents[_docuId].broker\r\n        ];\r\n    }\r\n\r\n    function getStatusDocument(uint256 _docuId)\r\n        public\r\n        view\r\n        returns (string memory)\r\n    {\r\n        string[5] memory statuses = [\r\n            \"Quoted\",\r\n            \"Applied\",\r\n            \"In progress\",\r\n            \"Approved\",\r\n            \"Rejected\"\r\n        ];\r\n        uint256 statusIdx = uint256(documents[_docuId].status);\r\n        return statuses[statusIdx];\r\n    }\r\n\r\n    function getSignatoriesClaim(uint256 _claimId)\r\n        public\r\n        view\r\n        returns (address[2] memory)\r\n    {\r\n        return [claims[_claimId].client, claims[_claimId].broker];\r\n    }\r\n\r\n    function getStatusClaim(uint256 _claimId)\r\n        public\r\n        view\r\n        returns (string memory)\r\n    {\r\n        string[4] memory statuses = [\r\n            \"Applied\",\r\n            \"In progress\",\r\n            \"Approved\",\r\n            \"Rejected\"\r\n        ];\r\n        uint256 statusIdx = uint256(claims[_claimId].cStatus);\r\n        return statuses[statusIdx];\r\n    }\r\n}\r\n",
  "sourcePath": "C:\\Users\\vigne\\OneDrive\\Documents\\GitHub\\homana-frontend\\src\\contracts\\DocumentSigner.sol",
  "compiler": {
    "name": "solc",
    "version": "0.8.11+commit.d7f03943.Emscripten.clang"
  },
  "schemaVersion": "3.4.4",
  "updatedAt": "2022-07-10T05:40:48.010Z",
  "networkType": "ethereum",
  "devdoc": {
    "kind": "dev",
    "methods": {},
    "version": 1
  },
  "userdoc": {
    "kind": "user",
    "methods": {},
    "version": 1
  }
}